:1000000049C0000063C0000061C000005FC0000084
:100010005DC000005BC0000059C0000057C0000078
:1000200055C0000053C0000051C000004FC0000088
:100030004DC000004BC0000049C0000047C0000098
:1000400045C0000043C0000042C000003FC00000A7
:100050003DC0000058C2000039C0000037C0000099
:1000600035C0000033C0000031C000002FC00000C8
:100070002DC000002BC0000029C0000027C00000D8
:1000800025C0000023C0000021C000001FC00000E8
:100090001DC0000011241FBECFEFD8E0DEBFCDBFD2
:1000A00011E0A0E0B1E0E0E8F2E102C005900D92BD
:1000B000A837B107D9F723E0A8E7B1E001C01D9246
:1000C000AF34B207E1F783D20C943E0999CF1F9267
:1000D0000F920FB60F9211242F933F934F935F937C
:1000E0006F938F939F93AF93BF93EF93FF93CF93B0
:1000F000DF931F92CDB7DEB78091E00080FF47C04D
:100100009091DE0090FF43C01092ED00EEEEF0E023
:100110008081898380818F7B808380917D01909114
:100120007C01981789F187702BE0829FC001112410
:10013000FC01EA52FE4F20812093F00020812093A1
:10014000F20021812093F3002381AAEFB0E02C93E9
:1001500024812C9325812C9326812C9327812C9309
:1001600020852C9321852C9322852C93FC01E85229
:10017000FE4F80818F7080648093EF0080917D01BD
:100180008F5F80937D017DC010927B017AC081FFDB
:1001900078C08091DE0081FF74C080E18093ED0023
:1001A00080917901282F30E090917A01291B310943
:1001B0002F773327283031050CF058C0E82FE7702F
:1001C0009091EF002E2F30E04BE0E49FF0011124DE
:1001D000E258FE4F9F704281407F942B9283909112
:1001E000F2004091F0004770907E942B90839091A4
:1001F000F3009183AAEFB0E09C9193839C91948348
:100200009C9195839C9196839C9197839C919087D8
:100210009C9191879C9192878F5F80937901408117
:100220004295469547705181652F660F660F660FA0
:10023000862F842B952F929596959770892BB1F4E4
:100240008BE0829FF001839FF00D1124E258FE4F56
:100250008381833059F498E088E10FB6F894A8952B
:10026000809360000FBE90936000FFCFEEEEF0E051
:1002700080818983898180818F7D808380E88093DC
:10028000EF000F90DF91CF91FF91EF91BF91AF9170
:100290009F918F916F915F914F913F912F910F900F
:1002A0000FBE0F901F901895CF93DF93E8EDF0E00D
:1002B00081E080831092E2008CE08093E30087E38A
:1002C0008093E4001092E7001092E6001092E9009B
:1002D0001092E8001092EC001092E500CDEED0E014
:1002E0001882AEEEB0E01C9280E188831C921092DE
:1002F000F4001092F6001092F7001092F0001092A5
:10030000F2001092F30080E88093EF0083E0809386
:10031000DC008093DE0080EB8093DB0082E0808352
:1003200010927801DF91CF910895CF93DF93EC0184
:1003300040917A0120917901241789F1A42FA770A7
:100340008BE0A89FB0011124FB01E258FE4F2081F1
:100350002295269527703181532F550F550F550F34
:10036000252B32953695377028833983FB01E05869
:10037000FE4F20812F702A83222399F0DB01AF5793
:10038000BE4FFE01339630E02D5F3F4FCE01820F0E
:10039000931F2D912193E817F907D9F702C080E048
:1003A00004C04F5F40937A0181E0DF91CF910895BF
:1003B000CF93DF93DC01EBEDF0E080818F778083DA
:1003C00080917B01811129C01092ED008C91829562
:1003D000880F807E8093F2008D919C911197969565
:1003E000879596958795969587958093F300FD015F
:1003F00033969D01255F3F4FCAEFD0E081918883FE
:10040000E217F307D9F781E080937B0112968C9174
:1004100080648093EF0091E049C020917C01822F9D
:1004200090E030917D01831B91098F779927089780
:10043000E1F1C22FC7708BE0C89FE0011124FE01DB
:10044000EA52FE4F8C91982F9295990F907E808161
:100450008F71892B80838C91982F96959695969580
:100460008181807E892B818311969C911197929531
:10047000990F907E8F71892B818312968C911297A0
:10048000982F9F708281807F892B8283FD01339614
:10049000C752DE4F1B9681918993EA17FB07D9F764
:1004A0002F5F20937C0191E001C090E0EBEDF0E044
:1004B00080818068808381E0911101C080E0DF91BC
:1004C000CF910895E0ECF0E0908195FFFDCF80930F
:1004D000C60081E090E0089589E190E09093C50026
:1004E0008093C40086E08093C200E1ECF0E080815C
:1004F0008869808360E070E082E692E01EC2089521
:100500008091C60008951F920F920FB60F9211248A
:100510002F933F934F935F936F937F938F939F930B
:10052000AF93BF93EF93FF93EBDF482F20913302FC
:1005300030913402F901E05CFD4F8083C9010196DE
:1005400068EC70E0D3D190933402809333024A3048
:1005500049F480912F0290913002019690933002DD
:1005600080932F02FF91EF91BF91AF919F918F9157
:100570007F916F915F914F913F912F910F900FBE9F
:100580000F901F901895982F80ED890F8A3078F082
:100590008FEB890F863018F489EC890F08958FE965
:1005A000890F863018F489EA890F089580E008954C
:1005B00080912E028F5F80932E0280912F02909166
:1005C000300201979093300280932F020895CF93C9
:1005D000DF9300D000D01F92CDB7DEB7F8947CDF58
:1005E00063DE78940F2EF5E3AF2EF2E0BF2EF02DF0
:1005F0000F2EF8E02F2EF3E03F2EF02D0F2EFDE50D
:100600006F2EFAE07F2E812CF02D0F2EF5E14F2E6C
:10061000F1E05F2EF02D0F2EF0E1CF2EF1E0DF2E76
:10062000F02D9A2CB982892D99817FDE882309F4D7
:100630005AC0D50112968C9112971F928F931196E2
:100640008C9111978F938C918F93A6E0B1E0BF931B
:10065000AF933F922F92FED19B838A83D50112964E
:100660008C910FB6F894DEBF0FBECDBF882359F131
:100670000F2EF8E3EF2EF2E0FF2EF02D00E010E059
:10068000D7012D917D011F922F93DF92CF922A8166
:100690003B81285F3C4F3F932F93DCD1EA81FB8164
:1006A000E80FF91FFB83EA830F5F1F4FD5011296F6
:1006B0002C9130E00F900F900F900F900F900F90B3
:1006C00002171307ECF2EA81FB81E85FFC4F6082BE
:1006D000718282823F922F925F924F9278D10F90D7
:1006E0000F900F900F9020912F0230913002232B0A
:1006F00009F499CF8091310290913202FC01E05CC3
:10070000FD4F20812B35C9F1019668EC70E0EED0E9
:100710009093320280933102E12CF12C08EC10E02E
:1007200022C00196B801E2D0909332028093310248
:10073000B7ECEB16F10429F488E191E05BD138DFE6
:100740001CC081E08E0D823058F0FF92EF92A2E53E
:10075000B1E0BF93AF933BD10F900F900F900F90EC
:10076000FFEFEF1AFF0A8091310290913202FC01F3
:10077000E05CFD4F20812B35A1F680912E02811186
:10078000AFC08091310290913202019668EC70E026
:10079000ADD08C01FC01E05CFD4F8081F4DEF82ED1
:1007A000C801019668EC70E0A1D08C01FC01E05C0E
:1007B000FD4F8081E8DE2F2D30E0322F2227790196
:1007C00090E1899FE00CF11C1124C801019668ECAE
:1007D00070E08CD08C01FC01E05CFD4F8081D3DEA9
:1007E000D701A80FB11DEAE3F3E0B183A083C801EC
:1007F000019668EC70E07AD0019668EC70E076D0F3
:100800008C01FC01E05CFD4F8081BDDE282F8093D0
:100810003C03C801019668EC70E068D0019668EC72
:1008200070E064D08C839D83809331029093320278
:100830002223D1F10DE313E0822F90E09C01235C91
:100840003C4F7901DB82CA82D92CEC81FD81E05CCE
:10085000FD4F808198DE982E990C990C990C990C7B
:100860008C819D81019668EC70E040D09D838C83E3
:10087000FC01E05CFD4F808186DE282F8C819D810C
:10088000019668EC70E032D09D838C832929D801D1
:100890002D938D01AE15BF05C1F69D2CCA80DB805E
:1008A0009093320280933102809131029091320212
:1008B000019628EC30E0B90119D00196B90116D0A3
:1008C00090933202809331028AE393E071DD80914C
:1008D0002F029091300201979093300280932F0263
:1008E00080912E02815080932E029DCE97FB072E81
:1008F00016F4009406D077FD08D00BD007FC05D085
:100900003EF4909581959F4F0895709561957F4F26
:100910000895AA1BBB1B51E107C0AA1FBB1FA61746
:10092000B70710F0A61BB70B881F991F5A95A9F798
:1009300080959095BC01CD0108950F931F93CF939F
:10094000DF93009731F46115710519F480E090E0B0
:1009500039C08B01EC016EE070E081E090E05DD287
:10096000FC01892B99F380E883830115110571F04F
:100970001387028781E88383809145039091460322
:10098000892B21F4F0934603E09345032097C9F0A7
:10099000D187C08783818260838380914703909150
:1009A0004803892B71F4F0934803E0934703809147
:1009B000490390914A03892B21F4F0934A03E09371
:1009C0004903CF01DF91CF911F910F910895A0E0CE
:1009D000B0E0ECEEF4E02BC4AE014B5F5F4FFA01E8
:1009E00061917191AF01809147039091480352D07A
:1009F000E2E039C40F931F93CF93DF93E091470355
:100A0000F0914803238121FF1BC08C01D0E0C0E09E
:100A1000F80181918F016091470370914803DB01D8
:100A20001896ED91FC911997882331F00995892B3F
:100A300079F3DFEFCFEFECCF8AE00995892B19F03E
:100A40008FEF9FEF02C08D2F9C2FDF91CF911F91D1
:100A50000F910895AEE0B0E0EFE2F5E0E6C30D8956
:100A60001E8986E08C831A8309838FEF9FE79E831C
:100A70008D83AE01475E5F4F6F89788DCE01019601
:100A800009D02F813885F801E20FF31F10822E96CE
:100A9000E4E0E7C3ACE0B0E0EFE4F5E0B8C37C012C
:100AA0006B018A01FC0117821682838181FFB0C12C
:100AB000CE0101964C01F7019381F60193FD8591DA
:100AC00093FF81916F01882309F49EC1853239F427
:100AD00093FD859193FF81916F01853221F4B701D8
:100AE00090E0FFD2E8CF512C312C20E02032A0F44E
:100AF0008B3269F030F4803259F0833269F420612E
:100B00002CC08D3239F0803339F4216026C0226048
:100B1000246023C0286021C027FD27C030ED380F96
:100B20003A3078F426FF06C0FAE05F9E300D1124BB
:100B3000532E13C08AE0389E300D1124332E2062CC
:100B40000CC08E3221F426FD5FC1206406C08C36B5
:100B500011F4206802C0883641F4F60193FD8591B6
:100B600093FF81916F018111C1CF982F9F7D955483
:100B7000933028F40C5F1F4FFFE3F9830DC08336D9
:100B800031F0833771F0833509F057C021C0F80187
:100B9000808189830E5F1F4F44244394512C54015C
:100BA00014C03801F2E06F0E711CF801A080B18012
:100BB00026FF03C0652D70E002C06FEF7FEFC50117
:100BC0002C8784D22C0183012C852F77222E16C0EE
:100BD0003801F2E06F0E711CF801A080B18026FF91
:100BE00003C0652D70E002C06FEF7FEFC5012C8759
:100BF0005BD22C012C852068222E830123FC19C096
:100C0000832D90E048165906A0F4B70180E290E0E9
:100C100068D23A94F5CFF50127FC859127FE8191A2
:100C20005F01B70190E05DD231103A94F1E04F1AC4
:100C300051084114510479F7DEC0843611F0893629
:100C400031F5F80127FF07C06081718182819381AE
:100C50000C5F1F4F08C060817181072E000C880B4C
:100C6000990B0E5F1F4F2F76722E97FF09C090953C
:100C70008095709561957F4F8F4F9F4F2068722EA2
:100C80002AE030E0A40165D2A82EA81843C0853719
:100C900029F42F7EB22E2AE030E025C0F22FF97F12
:100CA000BF2E8F36C1F018F4883579F0ADC080378B
:100CB00019F0883721F0A8C02F2F2061B22EB4FE82
:100CC0000DC08B2D8460B82E09C024FF0AC09F2F51
:100CD0009660B92E06C028E030E005C020E130E083
:100CE00002C020E132E0F801B7FE07C060817181E7
:100CF000828193810C5F1F4F06C06081718180E00B
:100D000090E00E5F1F4FA40124D2A82EA818FB2D3F
:100D1000FF777F2E76FE0BC0372D3E7FA51450F453
:100D200074FE0AC072FC08C0372D3E7E05C0BA2C86
:100D3000372D03C0BA2C01C0B52C34FF0DC0FE0105
:100D4000EA0DF11D8081803311F4397E09C032FF34
:100D500006C0B394B39404C0832F867809F0B3948B
:100D600033FD12C030FF06C05A2CB31418F4530CD4
:100D70005B18B32CB31460F4B70180E290E03C87B9
:100D8000B0D1B3943C85F6CFB31410F43B1801C036
:100D9000312C34FF11C0B70180E390E03C87A1D132
:100DA0003C8532FF16C031FD03C088E790E002C0E9
:100DB00088E590E0B7010CC0832F867851F031FFB1
:100DC00002C08BE201C080E237FD8DE2B70190E006
:100DD00088D1A51430F4B70180E390E082D15A9411
:100DE000F8CFAA94F401EA0DF11D8081B70190E0DB
:100DF00078D1A110F6CF332009F45DCEB70180E29F
:100E000090E06FD13A94F7CFF7018681978102C0C5
:100E10008FEF9FEF2C96E2E116C20F931F93CF93B3
:100E2000DF93869F8001879F100D969F100D1124E0
:100E3000C8010DD0EC01009721F0A80160E070E03E
:100E40003ED1CE01DF91CF911F910F910895CF93A5
:100E5000DF938230910510F482E090E0E0914D0341
:100E6000F0914E0320E030E0C0E0D0E0309711F187
:100E70004081518148175907C0F04817590761F45C
:100E800082819381209719F09B838A832BC0909352
:100E90004E0380934D0326C02115310519F04217EA
:100EA000530718F49A01BE01DF01EF010280F381BC
:100EB000E02DDCCF2115310509F1281B390B243039
:100EC000310590F412968D919C91139761157105DF
:100ED00021F0FB019383828304C090934E0380939F
:100EE0004D03FD01329644C0FD01E20FF31F8193D3
:100EF0009193225031092D933C933AC020914B039A
:100F000030914C03232B41F42091020130910301D5
:100F100030934C0320934B03209100013091010149
:100F20002115310541F42DB73EB740910401509190
:100F30000501241B350BE0914B03F0914C03E217A4
:100F4000F307A0F42E1B3F0B2817390778F0AC01EC
:100F50004E5F5F4F2417350748F04E0F5F1F5093C9
:100F60004C0340934B038193919302C0E0E0F0E087
:100F7000CF01DF91CF9108950F931F93CF93DF930C
:100F8000009709F48CC0FC01329713821282009101
:100F90004D0310914E030115110581F4208131811B
:100FA000820F931F20914B0330914C032817390770
:100FB00079F5F0934C03E0934B0371C0D80140E006
:100FC00050E0AE17BF0750F412962D913C91139745
:100FD000AD012115310509F1D901F3CF9D01DA01E8
:100FE0003383228360817181860F971F8217930755
:100FF00069F4EC0128813981260F371F2E5F3F4F9E
:10100000318320838A819B8193838283452B29F4BA
:10101000F0934E03E0934D0342C01396FC93EE937E
:101020001297ED01499159919E01240F351FE21746
:10103000F30771F480819181840F951F02961196B8
:101040009C938E938281938113969C938E93129797
:10105000E0E0F0E0D80112968D919C9113970097F3
:1010600019F0F8018C01F6CF8D919C9198012E5FBB
:101070003F4F820F931F20914B0330914C03281751
:10108000390769F4309729F410924E0310924D03FA
:1010900002C01382128210934C0300934B03DF9122
:1010A000CF911F910F910895FC0105906150704000
:1010B0000110D8F7809590958E0F9F1F0895DC0141
:1010C00001C06D9341505040E0F70895FC0161501C
:1010D000704001900110D8F7809590958E0F9F1F5A
:1010E00008950F931F93CF93DF93FB01238121FD7D
:1010F00003C08FEF9FEF28C022FF16C046815781A3
:10110000248135814217530744F4A081B1819D01A8
:101110002F5F3F4F318320838C93268137812F5F50
:101120003F4F3783268310C0EB01092F182F00840F
:10113000F185E02D0995892BE1F68E819F8101963D
:101140009F838E83812F902FDF91CF911F910F91DD
:101150000895FA01AA27283051F1203181F1E8944D
:101160006F936E7F6E5F7F4F8F4F9F4FAF4FB1E09A
:101170003ED0B4E03CD0670F781F891F9A1FA11D95
:10118000680F791F8A1F911DA11D6A0F711D811D96
:10119000911DA11D20D009F468943F912AE0269F5B
:1011A00011243019305D3193DEF6CF010895462FBA
:1011B0004770405D4193B3E00FD0C9F7F6CF462F9B
:1011C0004F70405D4A3318F0495D31FD4052419304
:1011D00002D0A9F7EACFB4E0A695979587957795C1
:1011E0006795BA95C9F700976105710508959B0148
:1011F000AC010A2E06945795479537952795BA95D1
:10120000C9F7620F731F841F951FA01D08952F92A9
:101210003F924F925F926F927F928F929F92AF9286
:10122000BF92CF92DF92EF92FF920F931F93CF93D3
:10123000DF93CDB7DEB7CA1BDB0B0FB6F894DEBF6A
:101240000FBECDBF09942A88398848885F846E8490
:101250007D848C849B84AA84B984C884DF80EE80DA
:10126000FD800C811B81AA81B981CE0FD11D0FB6E3
:10127000F894DEBF0FBECDBFED010895F894FFCF07
:1012800000004F0320005B253033583A25643A00B4
:1012900025303258002573004552524F522C2043BE
:1012A0006F756C64206E6F742066696E6420737451
:1012B000617274206F662043414E6D657373616780
:1012C0006520696E20756172745278427566666534
:1012D00072004552524F522C204C6F6F6B696E67F3
:1012E00020666F72205B2C20696E6372656D656E7F
:0812F000743A2025750A000084
:00000001FF
