S016000043414E536869656C645F323031372E73726563BA
S11300000C944A000C9467000C9467000C946700ED
S11300100C9467000C9467000C9467000C946700C0
S11300200C9467000C9467000C9467000C946700B0
S11300300C9467000C9467000C9467000C946700A0
S11300400C9467000C9467000C9469000C9467008E
S11300500C9467000C9484020C9467000C94670061
S11300600C9467000C9467000C9467000C94670070
S11300700C9467000C9467000C9467000C94670060
S11300800C9467000C9467000C9467000C94670050
S11300900C94670011241FBECFEFD8E0DEBFCDBFA4
S11300A012E0A0E0B1E0E8EFF4E102C005900D92A7
S11300B0A839B107D9F724E0A8E9B2E001C01D923C
S11300C0AE36B207E1F70E94D2020C947A0A0C947D
S11300D000001F920F920FB60F9211242F933F939B
S11300E04F935F936F938F939F93AF93BF93EF93CC
S11300F0FF93CF93DF931F92CDB7DEB78091E000DB
S113010080FF47C09091DE0090FF43C01092ED0045
S1130110EEEEF0E08081898380818F7B8083809103
S11301209D0290919C02981789F187702BE0829F21
S1130130C0011124FC01EA50FD4F20812093F000FE
S113014020812093F20021812093F3002381AAEFE0
S1130150B0E02C9324812C9325812C9326812C931D
S113016027812C9320852C9321852C9322852C93F5
S1130170FC01E850FD4F80818F7080648093EF0014
S113018080919D028F5F80939D027DC010929B029F
S11301907AC081FF78C08091DE0081FF74C080E165
S11301A08093ED0080919902282F30E090919A027B
S11301B0291B31092F773327283031050CF058C01B
S11301C0E82FE7709091EF002E2F30E04BE0E49F92
S11301D0F0011124E256FD4F9F704281407F942B21
S11301E092839091F2004091F0004770907E942B9E
S11301F090839091F3009183AAEFB0E09C91938354
S11302009C9194839C9195839C9196839C919783D4
S11302109C9190879C9191879C9192878F5F80930A
S1130220990240814295469547705181652F660F2A
S1130230660F660F862F842B952F9295969597704F
S1130240892BB1F48BE0829FF001839FF00D112480
S1130250E256FD4F8381833059F498E088E10FB66C
S1130260F894A895809360000FBE90936000FFCF30
S1130270EEEEF0E080818983898180818F7D8083A7
S113028080E88093EF000F90DF91CF91FF91EF9181
S1130290BF91AF919F918F916F915F914F913F91DA
S11302A02F910F900FBE0F901F901895CF93DF934F
S11302B0E8EDF0E081E080831092E2008CE080932E
S11302C0E30087E38093E4001092E7001092E600D5
S11302D01092E9001092E8001092EC001092E500F0
S11302E0CDEED0E01882AEEEB0E01C9280E18883BF
S11302F01C921092F4001092F6001092F7001092E3
S1130300F0001092F2001092F30080E88093EF0066
S113031083E08093DC008093DE0080EB8093DB003D
S113032082E0808310929802DF91CF910895CF9359
S1130330DF93EC0140919A0220919902241789F1EC
S1130340A42FA7708BE0A89FB0011124FB01E256F3
S1130350FD4F20812295269527703181532F550F0B
S1130360550F550F252B32953695377028833983D1
S1130370FB01E056FD4F20812F702A83222399F040
S1130380DB01AF55BD4FFE01339630E02D5F3F4F8B
S1130390CE01820F931F2D912193E817F907D9F706
S11303A002C080E004C04F5F40939A0281E0DF9175
S11303B0CF910895CF93DF93DC01EBEDF0E08081E2
S11303C08F77808380919B02811129C01092ED0068
S11303D08C918295880F807E8093F2008D919C9100
S11303E01197969587959695879596958795809379
S11303F0F300FD0133969D01255F3F4FCAEFD0E026
S113040081918883E217F307D9F781E080939B02F7
S113041012968C9180648093EF0091E049C0209102
S11304209C02822F90E030919D02831B91098F776B
S113043099270897E1F1C22FC7708BE0C89FE001AC
S11304401124FE01EA50FD4F8C91982F9295990F3B
S1130450907E80818F71892B80838C91982F9695C3
S1130460969596958181807E892B818311969C91A6
S113047011979295990F907E8F71892B8183129693
S11304808C911297982F9F708281807F892B828311
S1130490FD013396C750DD4F1B9681918993EA176E
S11304A0FB07D9F72F5F20939C0291E001C090E0F5
S11304B0EBEDF0E080818068808381E0911101C0E0
S11304C080E0DF91CF910895E0ECF0E0908195FF1A
S11304D0FDCF8093C60081E090E008951092C5009E
S11304E01092C40086E08093C200E1ECF0E08081C9
S11304F08861808360E070E084E692E00E94F10508
S113050008958091C60008951F920F920FB60F921E
S113051011242F933F934F935F936F937F938F9304
S11305209F93AF93BF93EF93FF930E948102482F51
S11305302091520330915303F901E15AFC4F808317
S1130540C901019668EC70E00E94C90590935303B9
S1130550809352034A3031F481E090E090934F034A
S113056080934E03FF91EF91BF91AF919F918F9133
S11305707F916F915F914F913F912F910F900FBE9B
S11305800F901F901895982F80ED890F8A3048F0AE
S11305908FEB890F863028F08FE9890F863008F0B9
S11305A080E00895CF93DF9300D000D000D0CDB782
S11305B0DEB7F8940E946E020E94560178940F2EC2
S11305C0F4E58F2EF3E09F2EF02D0F2EF7E24F2E41
S11305D0F4E05F2EF02D0F2EFDE5AF2EFAE0BF2ED6
S11305E0C12CF02D0F2EF0E12F2EF1E03F2EF02D37
S11305F08C829982612C712CDC808D2D99810E94D2
S11306009701882309F45FC0D40112968C91129744
S11306101F928F9311968C9111978F938C918F9336
S1130620A6E0B1E0BF93AF935F924F920E9452064F
S11306309B838A83D40112968C910FB6F894DEBF03
S11306400FBECDBF882361F10F2EF7E5EF2EF3E047
S1130650FF2EF02D062D172DD7018D917D011F92B0
S11306608F933F922F922A813B81295D3B4F3F9389
S11306702F930E945206EA81FB81E80FF91FFB8346
S1130680EA830F5F1F4FD40112962C9130E00F9034
S11306900F900F900F900F900F9002171307E4F232
S11306A0EA81FB81E95DFB4FA082B182C2825F9245
S11306B04F92A5E1B1E0BF93AF930E943C060F9027
S11306C00F900F900F9080914E0390914F03892BC0
S11306D009F493CF8091500390915103FC01E15AA6
S11306E0FC4F20812B3509F40AC2019668EC70E0B6
S11306F00E94C9059093510380935003E12CF12C7F
S113070008EC10E00F2EF9E46F2EF1E07F2EF02DAF
S113071026C00196B8010E94C905909351038093A5
S11307205003F7ECEF16F10449F488E191E09F934C
S11307308F930E943C060F900F90E1C181E08E0DD3
S1130740823050F0FF92EF927F926F920E943C06AB
S11307500F900F900F900F902FEFE21AF20A8091F2
S1130760500390915103FC01E15AFC4F20812B3539
S113077081F6C5C1EA81FB81E15AFC4F80810E9468
S1130780C30290E00E2C02C0880F991F0A94E2F76E
S1130790080F191F8A819B810196B3010E94C90524
S11307A09B838A8334E0E31AF1088CEFE8168FEF19
S11307B0F80601F7AA81BB81B0935103A0935003BB
S11307C010935A0400935904FD01E15AFC4F8081AF
S11307D08A3309F445C0CD01019668EC70E00E94AB
S11307E0C9059093510380935003E12CF12C08EC3C
S11307F010E00F2EFEE96F2EF1E07F2EF02D26C0C3
S11308000196B8010E94C905909351038093500347
S1130810B7ECEB16F10449F48DE691E09F938F93C6
S11308200E943C060F900F901BC081E08E0D823019
S113083050F0FF92EF927F926F920E943C060F90CD
S11308400F900F900F90EFEFEE1AFE0A8091500375
S113085090915103FC01E15AFC4F20812A3381F627
S113086000915003109151039801215A3C4F790192
S1130870D9018C910E94C30280935B04F7018081AB
S11308808A3309F481C1C801019668EC70E00E94C2
S1130890C9059093510380935003E12CF12C08EC8B
S11308A010E00F2EFEE96F2EF1E07F2EF02D2AC00E
S11308B00196B8010E94C905909351038093500397
S11308C0F7ECEF16F10469F482EC91E09F938F93B7
S11308D00E943C0680915B040F900F9081111DC013
S11308E039C181E08E0D823050F0FF92EF927F92F9
S11308F06F920E943C060F900F900F900F902FEF75
S1130900E21AF20A8091500390915103FC01E15ADA
S1130910FC4F20812A3361F60EC1A0915003B0919F
S1130920510360905B04712CECE5F4E0FB83EA83F3
S113093000E010E0E12CF12CBE83AD83C70173010C
S11309403C01ED81FE81E15AFC4F80810E94C3028B
S1130950D82E8D819E81019668EC70E00E94C905B5
S11309609E838D83FC01E15AFC4F80810E94C30267
S1130970282F8D819E81019668EC70E00E94C90544
S11309809E838D83822F90E09C01002E02C0220F53
S1130990331F0A94E2F78D2D90E0002E02C0880FD9
S11309A0991F0A94E2F7820FAA81BB818D93BB83BE
S11309B0AA83BFEF6B1A7B0A0C5F1F4F6E147F0470
S11309C00CF4BFCFED81FE81F0935103E09350030B
S11309D0C1C00196B8010E94C90590935103809348
S11309E05003F7ECEF16F10449F581EF91E09F9382
S11309F08F930E943C068091500390915103FC0117
S1130A00E15AFC4F0F900F9020812A3009F0ADC0BD
S1130A106DC0019668EC70E00E94C9059093510383
S1130A20809350033DC0E12CF12C08EC10E00F2E14
S1130A30F9E16F2EF2E07F2EF02D11C081E08E0DD2
S1130A40823050F0FF92EF927F926F920E943C06A8
S1130A500F900F900F900F902FEFE21AF20A8091EF
S1130A60500390915103FC01E15AFC4F20812D3534
S1130A7009F0AFCFCECF0196B8010E94C90590937B
S1130A8051038093500337ECE316F104A1F48DE392
S1130A9092E09F938F930E943C060F900F9026C084
S1130AA0E12CF12C08EC10E00F2EF3E76F2EF2E0AE
S1130AB07F2EF02D11C081E08E0D823050F0FF9218
S1130AC0EF927F926F920E943C060F900F900F90CE
S1130AD00F908FEFE81AF80A809150039091510318
S1130AE0FC01E15AFC4F20812A3029F689E594E083
S1130AF00E94DA0110924F0310924E037BCDA09115
S1130B005003B09151036894EE24E3F8F12C00E013
S1130B1010E00F2EF8EC6F2E712CF02DBB83AA83FE
S1130B2029CE019668EC70E00E94C90590935103A8
S1130B308093500378CF20915B042111EECEF1CF46
S1130B40019668EC70E00E94C9059093510380936C
S1130B50500369CF8091500390915103FC01E15AF5
S1130B60FC4F20812D3561F754CF019668EC70E07D
S1130B700E94C905909351038093500391CF8091B3
S1130B80500390915103DCCF80915B048111C5CE59
S1130B90F6CF97FB072E16F4009407D077FD09D003
S1130BA00E94DD0507FC05D03EF4909581959F4F8A
S1130BB00895709561957F4F0895AA1BBB1B51E161
S1130BC007C0AA1FBB1FA617B70710F0A61BB70BB9
S1130BD0881F991F5A95A9F780959095BC01CD015E
S1130BE008950F931F93CF93DF93009731F461150A
S1130BF0710519F480E090E03AC08B01EC016EE0DD
S1130C0070E081E090E00E944708FC01892B91F399
S1130C1080E883830115110571F01387028781E849
S1130C2083838091640490916504892B21F4F0936B
S1130C306504E09364042097C9F0D187C087838159
S1130C40826083838091660490916704892B71F498
S1130C50F0936704E09366048091680490916904BA
S1130C60892B21F4F0936904E0936804CF01DF91A8
S1130C70CF911F910F910895A0E0B0E0E2E4F6E077
S1130C800C94530AAE014B5F5F4FFA01619171916D
S1130C90AF0180916604909167040E947506E2E0BA
S1130CA00C946F0AAEE0B0E0E8E5F6E00C94510A6B
S1130CB00D891E8986E08C831A8309838FEF9FE751
S1130CC09E838D83AE01475E5F4F6F89788DCE0121
S1130CD001960E9475062F813885F801E20FF31FF3
S1130CE010822E96E4E00C946D0AACE0B0E0EBE7E1
S1130CF0F6E00C94430A7C016B018A01FC01178223
S1130D001682838181FFBDC1CE0101964C01F7019A
S1130D109381F60193FD859193FF81916F0188235F
S1130D2009F4ABC1853239F493FD859193FF819128
S1130D306F01853229F4B70190E00E94AD09E7CF35
S1130D40512C312C20E02032A0F48B3269F030F4A5
S1130D50803259F0833269F420612CC08D3239F02D
S1130D60803339F4216026C02260246023C02860C7
S1130D7021C027FD27C030ED380F3A3078F426FF24
S1130D8006C0FAE05F9E300D1124532E13C08AE092
S1130D90389E300D1124332E20620CC08E3221F483
S1130DA026FD6BC1206406C08C3611F4206802C095
S1130DB0883641F4F60193FD859193FF81916F018B
S1130DC08111C1CF982F9F7D9554933028F40C5FE7
S1130DD01F4FFFE3F9830DC0833631F0833771F081
S1130DE0833509F05BC022C0F801808189830E5FDE
S1130DF01F4F44244394512C540115C03801F2E090
S1130E006F0E711CF801A080B18026FF03C0652D10
S1130E1070E002C06FEF7FEFC5012C870E94A2092A
S1130E202C0183012C852F77222E17C03801F2E084
S1130E306F0E711CF801A080B18026FF03C0652DE0
S1130E4070E002C06FEF7FEFC5012C870E9490090C
S1130E502C012C852068222E830123FC1BC0832DAA
S1130E6090E048165906B0F4B70180E290E00E9481
S1130E70AD093A94F4CFF50127FC859127FE8191C1
S1130E805F01B70190E00E94AD0931103A94F1E09E
S1130E904F1A51084114510471F7E5C0843611F01A
S1130EA0893639F5F80127FF07C060817181828195
S1130EB093810C5F1F4F08C060817181072E000C65
S1130EC0880B990B0E5F1F4F2F76722E97FF09C068
S1130ED090958095709561957F4F8F4F9F4F2068B7
S1130EE0722E2AE030E0A4010E94E509A82EA81879
S1130EF044C0853729F42F7EB22E2AE030E025C085
S1130F00F22FF97FBF2E8F36C1F018F4883579F0AF
S1130F10B4C0803719F0883721F0AFC02F2F20617B
S1130F20B22EB4FE0DC08B2D8460B82E09C024FFF0
S1130F300AC09F2F9660B92E06C028E030E005C095
S1130F4020E130E002C020E132E0F801B7FE07C042
S1130F5060817181828193810C5F1F4F06C0608123
S1130F60718180E090E00E5F1F4FA4010E94E509AB
S1130F70A82EA818FB2DFF777F2E76FE0BC0372DE9
S1130F803E7FA51450F474FE0AC072FC08C0372DCD
S1130F903E7E05C0BA2C372D03C0BA2C01C0B52C37
S1130FA034FF0DC0FE01EA0DF11D8081803311F480
S1130FB0397E09C032FF06C0B394B39404C0832FB2
S1130FC0867809F0B39433FD13C030FF06C05A2C61
S1130FD0B31418F4530C5B18B32CB31468F4B701AE
S1130FE080E290E03C870E94AD09B3943C85F5CF44
S1130FF0B31410F43B1801C0312C34FF12C0B701F4
S113100080E390E03C870E94AD093C8532FF17C025
S113101031FD03C088E790E002C088E590E0B701A5
S11310200CC0832F867859F031FF02C08BE201C0D7
S113103080E237FD8DE2B70190E00E94AD09A5146E
S113104038F4B70180E390E00E94AD095A94F7CFD9
S1131050AA94F401EA0DF11D8081B70190E00E9489
S1131060AD09A110F5CF332009F451CEB70180E2C8
S113107090E00E94AD093A94F6CFF70186819781FA
S113108002C08FEF9FEF2C96E2E10C945F0A0F935E
S11310901F93CF93DF93869F8001879F100D969FA8
S11310A0100D1124C8010E946308EC01009729F077
S11310B0A80160E070E00E949B09CE01DF91CF910E
S11310C01F910F910895CF93DF938230910510F40F
S11310D082E090E0E0916C04F0916D0420E030E057
S11310E0C0E0D0E0309711F1408151814817590791
S11310F0C0F04817590761F482819381209719F051
S11311009B838A832BC090936D0480936C0426C0C8
S11311102115310519F04217530718F49A01BE013D
S1131120DF01EF010280F381E02DDCCF21153105D1
S113113009F1281B390B2430310590F412968D9156
S11311409C9113976115710521F0FB0193838283B0
S113115004C090936D0480936C04FD01329644C0E6
S1131160FD01E20FF31F81939193225031092D93D6
S11311703C933AC020916A0430916B04232B41F4D0
S1131180209102013091030130936B0420936A048F
S113119020910001309101012115310541F42DB751
S11311A03EB74091040150910501241B350BE09199
S11311B06A04F0916B04E217F307A0F42E1B3F0BB3
S11311C02817390778F0AC014E5F5F4F24173507B5
S11311D048F04E0F5F1F50936B0440936A04819351
S11311E0919302C0E0E0F0E0CF01DF91CF91089548
S11311F00F931F93CF93DF93009709F48CC0FC01E6
S113120032971382128200916C0410916D040115BF
S1131210110581F420813181820F931F20916A048A
S113122030916B042817390779F5F0936B04E09338
S11312306A0471C0D80140E050E0AE17BF0750F413
S113124012962D913C911397AD012115310509F1A9
S1131250D901F3CF9D01DA01338322836081718147
S1131260860F971F8217930769F4EC01288139814F
S1131270260F371F2E5F3F4F318320838A819B8146
S113128093838283452B29F4F0936D04E0936C04DB
S113129042C01396FC93EE931297ED014991599134
S11312A09E01240F351FE217F30771F480819181A9
S11312B0840F951F029611969C938E93828193813D
S11312C013969C938E931297E0E0F0E0D801129667
S11312D08D919C911397009719F0F8018C01F6CF2A
S11312E08D919C9198012E5F3F4F820F931F209107
S11312F06A0430916B042817390769F4309729F48C
S113130010926D0410926C0402C013821282109326
S11313106B0400936A04DF91CF911F910F9108959C
S1131320FC010590615070400110D8F780959095AC
S11313308E0F9F1F0895DC0101C06D9341505040F2
S1131340E0F70895FC016150704001900110D8F756
S1131350809590958E0F9F1F08950F931F93CF93A1
S1131360DF93FB01238121FD03C08FEF9FEF28C092
S113137022FF16C0468157812481358142175307C5
S113138044F4A081B1819D012F5F3F4F31832083BD
S11313908C93268137812F5F3F4F3783268310C07C
S11313A0EB01092F182F0084F185E02D0995892B75
S11313B0E1F68E819F8101969F838E83812F902FEA
S11313C0DF91CF911F910F910895FA01AA27283038
S11313D051F1203181F1E8946F936E7F6E5F7F4FFE
S11313E08F4F9F4FAF4FB1E03ED0B4E03CD0670F7A
S11313F0781F891F9A1FA11D680F791F8A1F911DCD
S1131400A11D6A0F711D811D911DA11D20D009F41C
S113141068943F912AE0269F11243019305D31935E
S1131420DEF6CF010895462F4770405D4193B3E047
S11314300FD0C9F7F6CF462F4F70405D4A3318F0EE
S1131440495D31FD4052419302D0A9F7EACFB4E09F
S1131450A6959795879577956795BA95C9F7009757
S11314606105710508959B01AC010A2E06945795F8
S1131470479537952795BA95C9F7620F731F841F4F
S1131480951FA01D08952F923F924F925F926F92E5
S11314907F928F929F92AF92BF92CF92DF92EF9200
S11314A0FF920F931F93CF93DF93CDB7DEB7CA1B81
S11314B0DB0B0FB6F894DEBF0FBECDBF09942A88AC
S11314C0398848885F846E847D848C849B84AA8454
S11314D0B984C884DF80EE80FD800C811B81AA81E1
S11314E0B981CE0FD11D0FB6F894DEBF0FBECDBFAC
S10B14F0ED010895F894FFCF0B
S11314F800006E0420005B253033583A25643A0016
S113150825303258002573004552524F522C20433F
S11315186F756C64206E6F742066696E6420434135
S11315284E6D65737361676520696E2075617274A9
S11315385278427566666572004552524F522C20A5
S11315484C6F6F6B696E6720666F72205B2C206925
S11315586E6372656D656E743A2025750045525246
S11315684F522C20436F756C64206E6F742066692B
S11315786E642043414E206C656E67746820696E02
S113158820756172745278427566666572004552B8
S1131598524F522C204C6F6F6B696E6720666F72C6
S11315A8203A2C20696E6372656D656E743A202545
S11315B875004552524F522C20436F756C64206E4F
S11315C86F742066696E642043414E2044617461DF
S11315D820696E2075617274527842756666657208
S11315E8004552524F522C20436F756C64206E6F25
S11315F8742066696E64205D20696E20756172745A
S11316085278427566666572004552524F522C20D4
S11316184C6F6F6B696E6720666F72205D2C206952
S11316286E6372656D656E743A2025750045525275
S11316384F522C20436F756C64206E6F742066695A
S11316486E6420656E64206F662043414E204461B9
S1131658746120696E207561727452784275666689
S11316686572004552524F522C204C6F6F6B696E55
S11316786720666F72200A2C20696E6372656D6537
S10B16886E743A202575000080
S9030000FC
