:1000000049C0000063C0000061C000005FC0000084
:100010005DC000005BC0000059C0000057C0000078
:1000200055C0000053C0000051C000004FC0000088
:100030004DC000004BC0000049C0000047C0000098
:1000400045C0000043C0000042C000003FC00000A7
:100050003DC0000058C2000039C0000037C0000099
:1000600035C0000033C0000031C000002FC00000C8
:100070002DC000002BC0000029C0000027C00000D8
:1000800025C0000023C0000021C000001FC00000E8
:100090001DC0000011241FBECFEFD8E0DEBFCDBFD2
:1000A00011E0A0E0B1E0E4EEF2E102C005900D92B3
:1000B000A83AB107D9F723E0A8EAB1E001C01D9240
:1000C000AF37B207E1F783D20C94700999CF1F9232
:1000D0000F920FB60F9211242F933F934F935F937C
:1000E0006F938F939F93AF93BF93EF93FF93CF93B0
:1000F000DF931F92CDB7DEB78091E00080FF47C04D
:100100009091DE0090FF43C01092ED00EEEEF0E023
:100110008081898380818F7B80838091AD019091E4
:10012000AC01981789F187702BE0829FC0011124E0
:10013000FC01EA5FFD4F20812093F0002081209395
:10014000F20021812093F3002381AAEFB0E02C93E9
:1001500024812C9325812C9326812C9327812C9309
:1001600020852C9321852C9322852C93FC01E85F1C
:10017000FD4F80818F7080648093EF008091AD018E
:100180008F5F8093AD017DC01092AB017AC081FF7B
:1001900078C08091DE0081FF74C080E18093ED0023
:1001A0008091A901282F30E09091AA01291B3109E3
:1001B0002F773327283031050CF058C0E82FE7702F
:1001C0009091EF002E2F30E04BE0E49FF0011124DE
:1001D000E255FE4F9F704281407F942B9283909115
:1001E000F2004091F0004770907E942B90839091A4
:1001F000F3009183AAEFB0E09C9193839C91948348
:100200009C9195839C9196839C9197839C919087D8
:100210009C9191879C9192878F5F8093A9014081E7
:100220004295469547705181652F660F660F660FA0
:10023000862F842B952F929596959770892BB1F4E4
:100240008BE0829FF001839FF00D1124E255FE4F59
:100250008381833059F498E088E10FB6F894A8952B
:10026000809360000FBE90936000FFCFEEEEF0E051
:1002700080818983898180818F7D808380E88093DC
:10028000EF000F90DF91CF91FF91EF91BF91AF9170
:100290009F918F916F915F914F913F912F910F900F
:1002A0000FBE0F901F901895CF93DF93E8EDF0E00D
:1002B00081E080831092E2008CE08093E30087E38A
:1002C0008093E4001092E7001092E6001092E9009B
:1002D0001092E8001092EC001092E500CDEED0E014
:1002E0001882AEEEB0E01C9280E188831C921092DE
:1002F000F4001092F6001092F7001092F0001092A5
:10030000F2001092F30080E88093EF0083E0809386
:10031000DC008093DE0080EB8093DB0082E0808352
:100320001092A801DF91CF910895CF93DF93EC0154
:100330004091AA012091A901241789F1A42FA77047
:100340008BE0A89FB0011124FB01E255FE4F2081F4
:100350002295269527703181532F550F550F550F34
:10036000252B32953695377028833983FB01E0556C
:10037000FE4F20812F702A83222399F0DB01AF5496
:10038000BE4FFE01339630E02D5F3F4FCE01820F0E
:10039000931F2D912193E817F907D9F702C080E048
:1003A00004C04F5F4093AA0181E0DF91CF9108958F
:1003B000CF93DF93DC01EBEDF0E080818F778083DA
:1003C0008091AB01811129C01092ED008C91829532
:1003D000880F807E8093F2008D919C911197969565
:1003E000879596958795969587958093F300FD015F
:1003F00033969D01255F3F4FCAEFD0E081918883FE
:10040000E217F307D9F781E08093AB0112968C9144
:1004100080648093EF0091E049C02091AC01822F6D
:1004200090E03091AD01831B91098F779927089750
:10043000E1F1C22FC7708BE0C89FE0011124FE01DB
:10044000EA5FFD4F8C91982F9295990F907E808155
:100450008F71892B80838C91982F96959695969580
:100460008181807E892B818311969C911197929531
:10047000990F907E8F71892B818312968C911297A0
:10048000982F9F708281807F892B8283FD01339614
:10049000C75FDD4F1B9681918993EA17FB07D9F758
:1004A0002F5F2093AC0191E001C090E0EBEDF0E014
:1004B00080818068808381E0911101C080E0DF91BC
:1004C000CF910895E0ECF0E0908195FFFDCF80930F
:1004D000C60081E090E0089589E190E09093C50026
:1004E0008093C40086E08093C200E1ECF0E080815C
:1004F0008869808360E070E082E692E050C20895EF
:100500008091C60008951F920F920FB60F9211248A
:100510002F933F934F935F936F937F938F939F930B
:10052000AF93BF93EF93FF93EBDF482F20916302CC
:1005300030916402F901E059FD4F8083C9010196B1
:1005400068EC70E005D290936402809363024A30B5
:1005500049F480915F02909160020196909360024D
:1005600080935F02FF91EF91BF91AF919F918F9127
:100570007F916F915F914F913F912F910F900FBE9F
:100580000F901F901895982F80ED890F8A3078F082
:100590008FEB890F863018F489EC890F08958FE965
:1005A000890F863018F489EA890F089580E008954C
:1005B00080915E028F5F80935E0280915F029091D6
:1005C000600201979093600280935F020895CF9339
:1005D000DF9300D000D0CDB7DEB7F8947DDF64DEC6
:1005E000789405E612E00F2EF8E38F2EF3E09F2EAD
:1005F000F02D0F2EFDE52F2EFAE03F2E412CF02D91
:100600000F2EF5E16F2EF1E07F2EF02D502E198385
:10061000852D99818ADE882309F456C0D801129667
:100620008C9112971F928F9311968C9111978F93A3
:100630008C918F93A6E0B1E0BF93AF939F928F927E
:100640003BD27C01D80112968C910FB6F894DEBF94
:100650000FBECDBF882349F10F2EF8E6AF2EF2E092
:10066000BF2EF02DC12CD12CD5012D915D011F92F3
:100670002F93A0E1B1E0BF93AF939701285C3C4F6B
:100680003F932F9319D2E80EF91EFFEFCF1ADF0A1E
:10069000D80112962C9130E00F900F900F900F9090
:1006A0000F900F90C216D306FCF2F701E85CFC4FE6
:1006B0002082318242829F928F927F926F92B9D133
:1006C0000F900F900F900F9020915F023091600279
:1006D000232B09F49DCF8091610290916202FC016D
:1006E000E059FD4F20812B3509F440C0019668EC9C
:1006F00070E02ED19093620280936102E12CF12C84
:100700000F2EF8ECAF2EB12CF02D0F2EF2E5CF2EE0
:10071000F1E0DF2EF02D20C00196B50119D19093A4
:10072000620280936102B7ECEB16F10429F488E1D0
:1007300091E092D13DDF1AC081E08E0D823048F009
:10074000FF92EF92DF92CF9274D10F900F900F90A3
:100750000F90EFEFEE1AFE0A809161029091620213
:10076000FC01E059FD4F20812B35B1F680915E02EE
:100770008111E8C0809161029091620201960F2E72
:10078000F8ECEF2EF12CF02DB701E2D06C01FC015A
:10079000E059FD4F8081F7DEA82EC6010196B70112
:1007A000D7D06C01FC01E059FD4F8081ECDEB12C0B
:1007B000BA2CAA24F0E18F9FA00CB11C1124C60111
:1007C0000196B701C5D06C01FC01E059FD4F808155
:1007D000DADEA80EB11CC6010196B701B9D090931C
:1007E000620280936102BF92AF9287E791E09F938C
:1007F0008F931FD10F2EFAE6CF2EF3E0DF2EF02DD0
:10080000D601AD92BC9280916102909162020196F4
:10081000B7019ED05C01FC01E059FD4F8081B3DE41
:10082000282FF6018283C5010196B70191D09093DC
:100830006202809361021F922F9385E891E09F935B
:100840008F93F7D080916102909162020196B70177
:100850007FD09093620280936102D60112968C91B0
:100860000FB6F894DEBF0FBECDBF882309F44EC08B
:100870000F2EFDE6AF2EF3E0BF2EF02DE12CF12C74
:1008800020E131E03B832A835C82C0906102D090FA
:100890006202F601E059FD4F808175DE582E550C3D
:1008A000550C550C550CC601019668EC70E050D003
:1008B0006C01FC01E059FD4F808165DE252D282B60
:1008C000C601019668EC70E043D090936202809379
:1008D0006102D5012D935D011F922F93FF92EF923C
:1008E000A5E9B1E0BF93AF93A4D0FFEFEF1AFF0AE1
:1008F00080916C0390E00F900F900F900F900F90ED
:100900000F90E816F9060CF4C0CF5C80809161026C
:1009100090916202019628EC30E0B90119D001965D
:10092000B90116D090936202809361028AE693E047
:100930003FDD80915F029091600201979093600289
:1009400080935F0280915E02815080935E0260CE50
:1009500097FB072E16F4009406D077FD08D00BD035
:1009600007FC05D03EF4909581959F4F08957095B2
:1009700061957F4F0895AA1BBB1B51E107C0AA1FB9
:10098000BB1FA617B70710F0A61BB70B881F991F30
:100990005A95A9F780959095BC01CD0108950F93C4
:1009A0001F93CF93DF93009731F46115710519F40C
:1009B00080E090E039C08B01EC016EE070E081E0F6
:1009C00090E05DD2FC01892B99F380E883830115C7
:1009D000110571F01387028781E883838091750385
:1009E00090917603892B21F4F0937603E0937503BD
:1009F0002097C9F0D187C0878381826083838091EB
:100A0000770390917803892B71F4F0937803E09346
:100A100077038091790390917A03892B21F4F093E5
:100A20007A03E0937903CF01DF91CF911F910F916A
:100A30000895A0E0B0E0EEE1F5E02BC4AE014B5F1D
:100A40005F4FFA0161917191AF01809177039091AD
:100A5000780352D0E2E039C40F931F93CF93DF9312
:100A6000E0917703F0917803238121FF1BC08C0173
:100A7000D0E0C0E0F80181918F016091770370911F
:100A80007803DB011896ED91FC911997882331F0DA
:100A90000995892B79F3DFEFCFEFECCF8AE0099549
:100AA000892B19F08FEF9FEF02C08D2F9C2FDF91C4
:100AB000CF911F910F910895AEE0B0E0E1E6F5E02F
:100AC000E6C30D891E8986E08C831A8309838FEF24
:100AD0009FE79E838D83AE01475E5F4F6F89788D60
:100AE000CE01019609D02F813885F801E20FF31F5E
:100AF00010822E96E4E0E7C3ACE0B0E0E1E8F5E078
:100B0000B8C37C016B018A01FC01178216828381C4
:100B100081FFB0C1CE0101964C01F7019381F6012E
:100B200093FD859193FF81916F01882309F49EC104
:100B3000853239F493FD859193FF81916F01853260
:100B400021F4B70190E0FFD2E8CF512C312C20E006
:100B50002032A0F48B3269F030F4803259F08332C5
:100B600069F420612CC08D3239F0803339F4216072
:100B700026C02260246023C0286021C027FD27C032
:100B800030ED380F3A3078F426FF06C0FAE05F9E69
:100B9000300D1124532E13C08AE0389E300D1124DD
:100BA000332E20620CC08E3221F426FD5FC12064FA
:100BB00006C08C3611F4206802C0883641F4F60174
:100BC00093FD859193FF81916F018111C1CF982F82
:100BD0009F7D9554933028F40C5F1F4FFFE3F983FA
:100BE0000DC0833631F0833771F0833509F057C07B
:100BF00021C0F801808189830E5F1F4F44244394F4
:100C0000512C540114C03801F2E06F0E711CF80130
:100C1000A080B18026FF03C0652D70E002C06FEF99
:100C20007FEFC5012C8784D22C0183012C852F777F
:100C3000222E16C03801F2E06F0E711CF801A08060
:100C4000B18026FF03C0652D70E002C06FEF7FEF1B
:100C5000C5012C875BD22C012C852068222E8301B4
:100C600023FC19C0832D90E048165906A0F4B70163
:100C700080E290E068D23A94F5CFF50127FC8591A7
:100C800027FE81915F01B70190E05DD231103A9467
:100C9000F1E04F1A51084114510479F7DEC084364F
:100CA00011F0893631F5F80127FF07C060817181A5
:100CB000828193810C5F1F4F08C060817181072E74
:100CC000000C880B990B0E5F1F4F2F76722E97FF2B
:100CD00009C090958095709561957F4F8F4F9F4F7C
:100CE0002068722E2AE030E0A40165D2A82EA81850
:100CF00043C0853729F42F7EB22E2AE030E025C08C
:100D0000F22FF97FBF2E8F36C1F018F4883579F0B5
:100D1000ADC0803719F0883721F0A8C02F2F20618F
:100D2000B22EB4FE0DC08B2D8460B82E09C024FFF6
:100D30000AC09F2F9660B92E06C028E030E005C09B
:100D400020E130E002C020E132E0F801B7FE07C048
:100D500060817181828193810C5F1F4F06C0608129
:100D6000718180E090E00E5F1F4FA40124D2A82E75
:100D7000A818FB2DFF777F2E76FE0BC0372D3E7F08
:100D8000A51450F474FE0AC072FC08C0372D3E7ED4
:100D900005C0BA2C372D03C0BA2C01C0B52C34FFC6
:100DA0000DC0FE01EA0DF11D8081803311F4397E02
:100DB00009C032FF06C0B394B39404C0832F867871
:100DC00009F0B39433FD12C030FF06C05A2CB3149F
:100DD00018F4530C5B18B32CB31460F4B70180E221
:100DE00090E03C87B0D1B3943C85F6CFB31410F4B7
:100DF0003B1801C0312C34FF11C0B70180E390E0F3
:100E00003C87A1D13C8532FF16C031FD03C088E785
:100E100090E002C088E590E0B7010CC0832F86788F
:100E200051F031FF02C08BE201C080E237FD8DE25C
:100E3000B70190E088D1A51430F4B70180E390E0C9
:100E400082D15A94F8CFAA94F401EA0DF11D808161
:100E5000B70190E078D1A110F6CF332009F45DCE30
:100E6000B70180E290E06FD13A94F7CFF701868125
:100E7000978102C08FEF9FEF2C96E2E116C20F938D
:100E80001F93CF93DF93869F8001879F100D969FBE
:100E9000100D1124C8010DD0EC01009721F0A8011C
:100EA00060E070E03ED1CE01DF91CF911F910F91B4
:100EB0000895CF93DF938230910510F482E090E0A3
:100EC000E0917D03F0917E0320E030E0C0E0D0E0CF
:100ED000309711F14081518148175907C0F04817E8
:100EE000590761F482819381209719F09B838A834B
:100EF0002BC090937E0380937D0326C0211531057E
:100F000019F04217530718F49A01BE01DF01EF01EF
:100F10000280F381E02DDCCF2115310509F1281B7A
:100F2000390B2430310590F412968D919C911397D2
:100F30006115710521F0FB019383828304C09093B6
:100F40007E0380937D03FD01329644C0FD01E20FD4
:100F5000F31F81939193225031092D933C933AC012
:100F600020917B0330917C03232B41F420910201DB
:100F70003091030130937C0320937B032091000187
:100F8000309101012115310541F42DB73EB7409153
:100F9000040150910501241B350BE0917B03F09176
:100FA0007C03E217F307A0F42E1B3F0B2817390729
:100FB00078F0AC014E5F5F4F2417350748F04E0FB5
:100FC0005F1F50937C0340937B038193919302C0F6
:100FD000E0E0F0E0CF01DF91CF9108950F931F93F0
:100FE000CF93DF93009709F48CC0FC0132971382F2
:100FF000128200917D0310917E030115110581F489
:1010000020813181820F931F20917B0330917C03DB
:101010002817390779F5F0937C03E0937B0371C0BF
:10102000D80140E050E0AE17BF0750F412962D9162
:101030003C911397AD012115310509F1D901F3CF89
:101040009D01DA013383228360817181860F971FAE
:101050008217930769F4EC0128813981260F371F25
:101060002E5F3F4F318320838A819B8193838283CC
:10107000452B29F4F0937E03E0937D0342C0139641
:10108000FC93EE931297ED01499159919E01240F23
:10109000351FE217F30771F480819181840F951F4A
:1010A000029611969C938E938281938113969C93C2
:1010B0008E931297E0E0F0E0D80112968D919C910A
:1010C0001397009719F0F8018C01F6CF8D919C9140
:1010D00098012E5F3F4F820F931F20917B03309129
:1010E0007C032817390769F4309729F410927E039E
:1010F00010927D0302C01382128210937C0300932E
:101100007B03DF91CF911F910F910895FC01059012
:10111000615070400110D8F7809590958E0F9F1FF9
:101120000895DC0101C06D9341505040E0F70895EF
:10113000FC016150704001900110D8F780959095A6
:101140008E0F9F1F08950F931F93CF93DF93FB0183
:10115000238121FD03C08FEF9FEF28C022FF16C01F
:1011600046815781248135814217530744F4A08179
:10117000B1819D012F5F3F4F318320838C93268166
:1011800037812F5F3F4F3783268310C0EB01092F34
:10119000182F0084F185E02D0995892BE1F68E81C9
:1011A0009F8101969F838E83812F902FDF91CF9116
:1011B0001F910F910895FA01AA27283051F120318B
:1011C00081F1E8946F936E7F6E5F7F4F8F4F9F4FDB
:1011D000AF4FB1E03ED0B4E03CD0670F781F891F1D
:1011E0009A1FA11D680F791F8A1F911DA11D6A0FEB
:1011F000711D811D911DA11D20D009F468943F919E
:101200002AE0269F11243019305D3193DEF6CF019C
:101210000895462F4770405D4193B3E00FD0C9F762
:10122000F6CF462F4F70405D4A3318F0495D31FDCF
:101230004052419302D0A9F7EACFB4E0A695979522
:10124000879577956795BA95C9F7009761057105F8
:1012500008959B01AC010A2E069457954795379542
:101260002795BA95C9F7620F731F841F951FA01D9C
:1012700008952F923F924F925F926F927F928F923A
:101280009F92AF92BF92CF92DF92EF92FF920F9315
:101290001F93CF93DF93CDB7DEB7CA1BDB0B0FB61F
:1012A000F894DEBF0FBECDBF09942A8839884888DC
:1012B0005F846E847D848C849B84AA84B984C88472
:1012C000DF80EE80FD800C811B81AA81B981CE0F69
:1012D000D11D0FB6F894DEBF0FBECDBFED0108954E
:0412E000F894FFCFB0
:1012E40000007F0320005B253033583A25643A0020
:1012F40025303258002573004552524F522C20435A
:101304006F756C64206E6F742066696E64207374EC
:10131400617274206F662043414E6D65737361671B
:101324006520696E207561727452784275666665CF
:1013340072004552524F522C204C6F6F6B696E678E
:1013440020666F72205B2C20696E6372656D656E1A
:10135400743A2025750A0043414E2069643A2025D9
:101364003033580A0043414E204C656E6774683A26
:101374002025750A0043616E204461746120256450
:081384003A20253032580A001E
:00000001FF
